:100000000C9463000C948B000C948B000C948B006C
:100010000C948B000C948B000C948B000C948B0034
:100020000C948B000C948B000C948B000C94D201DC
:100030000C948B000C948B000C948B000C948B0014
:100040000C9405030C948B000C94F4030C948B001B
:100050000C948B000C948B000C948B000C948B00F4
:100060000C948B000C948B000000000024002700EF
:100070002A0000000000250028002B0000000000DE
:1000800023002600290004040404040404040202DA
:100090000202020203030303030301020408102007
:1000A0004080010204081020010204081020000012
:1000B0000007000201000003040600000000000029
:1000C00000008F02790511241FBECFEFD8E0DEBFFC
:1000D000CDBF11E0A0E0B1E0E4E9FDE002C0059091
:1000E0000D92AE30B107D9F711E0AEE0B1E001C03A
:1000F0001D92AE3EB107E1F710E0C6ECD0E004C0BF
:100100002297FE010E94C406C23CD107C9F70E9493
:10011000FE020C94C8060C940000FC0180910E01B4
:100120008C3090F480838F5F80930E01815090E03B
:10013000FC01EE0FFF1FE80FF91FE15FFE4F88EB98
:100140009BE09283818308958FEF80830895FC0163
:1001500020812C30C0F58181992787FD909548E852
:1001600050E0481B590B440F551F440F551F64178F
:10017000750784F08281992787FD909548E552E0C4
:10018000481B590B440F551F440F551F6417750723
:100190000CF4AB01CA01AA2797FDA095BA2F0697C8
:1001A000A109B109880F991FAA1FBB1F4FB7F89467
:1001B00030E0F901EE0FFF1FE20FF31FE15FFE4F8A
:1001C000928381834FBF0895AF92BF92CF92DF9207
:1001D000EF92FF920F931F93CF93DF93EC019B015C
:1001E00082E0603278070CF048C077FF03C020E05F
:1001F00030E005C0653B710514F024EB30E000D021
:1002000000D0B901882777FD8095982F2981332761
:1002100027FD3095B8E8AB2EB12CA21AB30AAA0C70
:10022000BB1CAA0CBB1CCC24B7FCC094DC2CEA8100
:10023000FF27E7FDF09528E532E02E1B3F0B220F4C
:10024000331F220F331F442737FD4095542FEDB73E
:10025000FEB7218332834383548320E030E040E0C3
:1002600050E0E4EBEE2EF12C012D112D0E94EA0559
:100270009B010F900F900F900F90CE01B9010E943B
:10028000A700DF91CF911F910F91FF90EF90DF902A
:10029000CF90BF90AF900895CF92DF92EF92FF92F0
:1002A0001F93CF93DF93EC01162F7A0169018881A8
:1002B0008C3008F064C0862F61E00E94870388813B
:1002C00090E0FC01EE0FFF1FE80FF91FE15FFE4F0A
:1002D0001F738081807C812B808380E292E08E1965
:1002E0009F0964E070E00E945E06698380E699E001
:1002F0008C199D0964E070E00E945E066A83A88103
:100300008A2F6CE00E945206682F70E0AB01440F08
:10031000551F460F571F440F551F440F551F20E010
:1003200030E0C901840F951FFC01EE0FFF1FE80F9D
:10033000F91FE15FFE4F808186FD15C02F5F3F4FA3
:100340002C30310571F724C01092800082E0809338
:1003500081001092850010928400B19A80916F0004
:10036000826080936F008A2F90E0FC01EE0FFF1FE8
:10037000E80FF91FE15FFE4F8081806480838881F0
:10038000DF91CF911F91FF90EF90DF90CF90089574
:10039000672BD1F2E8CF40E252E020E639E00E943C
:1003A0004C0108951F920F920FB60F9211242F93B4
:1003B0003F934F935F936F937F938F939F93AF93ED
:1003C000BF93EF93FF938091330187FF05C0109295
:1003D0008500109284002BC020913301332727FD24
:1003E000309580910E0190E02817390704F580912F
:1003F0003301992787FD9095FC01EE0FFF1FE80F51
:10040000F91FE15FFE4F808186FF11C080913301AB
:10041000992787FD9095FC01EE0FFF1FE80FF91F4C
:10042000E15FFE4F80818F7360E00E94A70380919F
:1004300033018F5F8093330120913301332727FDF0
:10044000309580910E0190E0281739070CF04EC0CE
:10045000809133018C300CF049C0209184003091A0
:10046000850080913301992787FD9095FC01EE0F5F
:10047000FF1FE80FF91FE15FFE4F81819281280F76
:10048000391F309389002093880080913301992788
:1004900087FD9095FC01EE0FFF1FE80FF91FE15F4C
:1004A000FE4F808186FF2AC080913301992787FD06
:1004B0009095FC01EE0FFF1FE80FF91FE15FFE4F63
:1004C00080818F7361E00E94A70318C080E49CE9DB
:1004D00005C08091840090918500049690938900D6
:1004E000809388008FEF8093330108C0809184004F
:1004F0009091850084549C4948F3EBCFFF91EF9194
:10050000BF91AF919F918F917F916F915F914F912B
:100510003F912F910F900FBE0F901F901895CF9382
:10052000DF93C6E3D1E0CE010E948D00239681E0E7
:10053000CE34D807C1F7DF91CF9108950F931F9361
:100540008BED91E00E942A05833020F18BED91E044
:100550000E943E0590933501809334012091020161
:100560003091030182179307A9F48BED91E00E946B
:100570003E058C018BED91E00E943E05BC010150CF
:100580001040C801880F991F800F911F8A5C9E4FF1
:100590000E94E4001F910F910895EF92FF920F9334
:1005A0001F93CF93DF938BED91E040E855E260E03D
:1005B00070E00E943104E0900001F0900101C0E081
:1005C000D0E0BE016E0D7F1D8E01000F111F0C0FBC
:1005D0001D1F0A5C1E4FC8010E94CB01C8016AE5BD
:1005E00070E00E94E4002196C830D10551F7DF91F8
:1005F000CF911F910F91FF90EF9008950E944D03AE
:100600000E94CD020E949E02FDCF1F920F920FB654
:100610000F9211242F933F938F939F93AF93BF9388
:100620008091520190915301A0915401B0915501D4
:10063000309156010196A11DB11D232F2D5F2D373D
:1006400020F02D570196A11DB11D209356018093D6
:10065000520190935301A0935401B093550180919E
:100660004E0190914F01A0915001B091510101961E
:10067000A11DB11D80934E0190934F01A093500195
:10068000B0935101BF91AF919F918F913F912F9165
:100690000F900FBE0F901F901895789484B58260CC
:1006A00084BD84B5816084BD85B5826085BD85B516
:1006B000816085BDEEE6F0E0808181608083E1E8C5
:1006C000F0E0808182608083808181608083E0E8C7
:1006D000F0E0808181608083E1EBF0E080818460E4
:1006E0008083E0EBF0E0808181608083EAE7F0E0E6
:1006F000808184608083808182608083808181604A
:1007000080838081806880831092C1000895282FA3
:1007100030E0C90186569F4FFC0194912A573F4F04
:10072000F9018491882391F0E82FF0E0EE0FFF1F8C
:10073000E859FF4FA591B491662329F48C919095C7
:1007400089238C9308958C91892B8C930895482F3D
:1007500050E0CA0182559F4FFC012491CA01865680
:100760009F4FFC0194914A575F4FFA013491332314
:10077000D1F1222331F1233021F4809180008F7751
:1007800005C0243031F4809180008F7D80938000FB
:1007900018C0213019F484B58F7704C0223021F4B9
:1007A00084B58F7D84BD0DC0263021F48091B000CA
:1007B0008F7705C0273029F48091B0008F7D80931A
:1007C000B000E32FF0E0EE0FFF1FEE58FF4FA591B2
:1007D000B491662329F48C91909589238C93089584
:1007E0008C91892B8C9308951F920F920FB60F92C4
:1007F00011242F933F934F935F936F937F938F9326
:100800009F93AF93BF93EF93FF934091C600E09106
:10081000D701F091D801CF01019660E870E00E9405
:100820005E069C018091D9019091DA012817390761
:1008300039F0E95AFE4F40833093D8012093D70115
:10084000FF91EF91BF91AF919F918F917F916F91A8
:100850005F914F913F912F910F900FBE0F901F907E
:1008600018955F926F927F928F929F92AF92BF92F4
:10087000CF92DF92EF92FF920F931F93CF93DF936C
:10088000EC013A014B01413482E458078FE06807DC
:1008900080E078070CF07FC060E874E88EE190E0BB
:1008A000A40193010E9493062150304040405040E3
:1008B000CA01B90122E030E040E050E00E94930616
:1008C00059016A01A60195012095309540955095F2
:1008D00094E0220F331F441F551F9A95D1F760E013
:1008E00074E284EF90E00E949306CA01B9012FEFF1
:1008F00030E040E050E00E943306A40193010E94E2
:100900009306C90181509F4F181619061CF4522EE8
:100910005A9403C055245394521A60E079E08DE351
:1009200090E0A40193010E94930621503040404082
:100930005040CA01B90122E030E040E050E00E949E
:100940009306209530954095509583E0220F331FF4
:10095000441F551F8A95D1F760E074E284EF90E060
:100960000E949306CA01B9012FEF30E040E050E049
:100970000E943306A40193010E949306C90181508D
:100980009F4F181619061CF4822F815002C081E077
:10099000821B851500F5E885F98581E090E00A88DD
:1009A00002C0880F991F0A94E2F7808360E079E023
:1009B0008DE390E0A40193010E9493062150304002
:1009C00040405040CA01B90122E030E040E050E030
:1009D0000E94930604C0E885F98510829501EC8198
:1009E000FD813083EE81FF812083EA85FB852081B4
:1009F00041E050E0CA010E8402C0880F991F0A949A
:100A0000E2F7282B2083EA85FB852081CA010F8429
:100A100002C0880F991F0A94E2F7282B2083EA85E9
:100A2000FB858081088802C0440F551F0A94E2F7B5
:100A3000842B8083DF91CF911F910F91FF90EF90D6
:100A4000DF90CF90BF90AF909F908F907F906F90EE
:100A50005F900895DC011296ED91FC911397E05898
:100A6000FF4F8191919180589F4F20813181821B4E
:100A7000930B60E870E00E945E060895CF93DF93C9
:100A8000DC011296ED91FC911397EF01CE57DF4FE9
:100A900048815981E058FF4F80819181E058F040B2
:100AA0008417950719F42FEF3FEF0CC0E40FF51FE3
:100AB0002081CA01019660E870E00E945E06998379
:100AC000888330E0C901DF91CF910895FC01A085B2
:100AD000B18521898C9190E0022E02C09595879571
:100AE0000A94E2F780FFF6CF0484F585E02D608359
:100AF000089588E091E09093DC018093DB0187E525
:100B000091E09093DE018093DD0185EC90E090937D
:100B1000E0018093DF0184EC90E09093E201809308
:100B2000E10180EC90E09093E4018093E30181EC9B
:100B300090E09093E6018093E50186EC90E090933D
:100B4000E8018093E70184E08093E90183E08093EA
:100B5000EA0187E08093EB0185E08093EC0181E07E
:100B60008093ED0108950F931F93CF93DF938C0132
:100B7000EB0109C02196D801ED91FC910190F08123
:100B8000E02DC801099568816623A1F7DF91CF9117
:100B90001F910F910895EF92FF920F931F93CF93A0
:100BA000DF938C017B01EA010CC0D7016D917D01BF
:100BB000D801ED91FC910190F081E02DC8010995DB
:100BC0002197209791F7DF91CF911F910F91FF907F
:100BD000EF9008952F923F924F925F926F927F9283
:100BE0008F929F92AF92BF92CF92DF92EF92FF923D
:100BF0000F931F93DF93CF93CDB7DEB73B014C012B
:100C000019012A016D897E898F89988D6A197B095E
:100C10008C099D09621A730A840A950AA40193013A
:100C20000E943306E218F30804091509A801970188
:100C30000E9493062A0D3B1D4C1D5D1DB901CA0182
:100C4000CF91DF911F910F91FF90EF90DF90CF90A8
:100C5000BF90AF909F908F907F906F905F904F90DC
:100C60003F902F900895629FD001739FF001829F63
:100C7000E00DF11D649FE00DF11D929FF00D839F2B
:100C8000F00D749FF00D659FF00D9927729FB00DC8
:100C9000E11DF91F639FB00DE11DF91FBD01CF01DB
:100CA00011240895991B79E004C0991F961708F044
:100CB000961B881F7A95C9F78095089597FB092E92
:100CC00007260AD077FD04D049D006D000201AF4B8
:100CD000709561957F4F0895F6F7909581959F4F98
:100CE0000895A1E21A2EAA1BBB1BFD010DC0AA1F6D
:100CF000BB1FEE1FFF1FA217B307E407F50720F085
:100D0000A21BB30BE40BF50B661F771F881F991FFF
:100D10001A9469F760957095809590959B01AC0148
:100D2000BD01CF01089597FB092E05260ED057FD72
:100D300004D0D7DF0AD0001C38F450954095309588
:100D400021953F4F4F4F5F4F0895F6F7909580954F
:100D5000709561957F4F8F4F9F4F0895AA1BBB1BC6
:100D600051E107C0AA1FBB1FA617B70710F0A61BAB
:100D7000B70B881F991F5A95A9F780959095BC01CC
:100D8000CD010895EE0FFF1F0590F491E02D099419
:040D9000F894FFCF05
:0E0D94000200FF00000000006605B305CB055D
:00000001FF
